{
  "contractName": "CodeCloudsNFT",
  "abi": [
    {
      "inputs": [],
      "stateMutability": "nonpayable",
      "type": "constructor"
    },
    {
      "anonymous": false,
      "inputs": [
        {
          "indexed": true,
          "internalType": "address",
          "name": "owner",
          "type": "address"
        },
        {
          "indexed": true,
          "internalType": "address",
          "name": "approved",
          "type": "address"
        },
        {
          "indexed": true,
          "internalType": "uint256",
          "name": "tokenId",
          "type": "uint256"
        }
      ],
      "name": "Approval",
      "type": "event"
    },
    {
      "anonymous": false,
      "inputs": [
        {
          "indexed": true,
          "internalType": "address",
          "name": "owner",
          "type": "address"
        },
        {
          "indexed": true,
          "internalType": "address",
          "name": "operator",
          "type": "address"
        },
        {
          "indexed": false,
          "internalType": "bool",
          "name": "approved",
          "type": "bool"
        }
      ],
      "name": "ApprovalForAll",
      "type": "event"
    },
    {
      "anonymous": false,
      "inputs": [
        {
          "indexed": true,
          "internalType": "address",
          "name": "previousOwner",
          "type": "address"
        },
        {
          "indexed": true,
          "internalType": "address",
          "name": "newOwner",
          "type": "address"
        }
      ],
      "name": "OwnershipTransferred",
      "type": "event"
    },
    {
      "anonymous": false,
      "inputs": [
        {
          "indexed": true,
          "internalType": "address",
          "name": "from",
          "type": "address"
        },
        {
          "indexed": true,
          "internalType": "address",
          "name": "to",
          "type": "address"
        },
        {
          "indexed": true,
          "internalType": "uint256",
          "name": "tokenId",
          "type": "uint256"
        }
      ],
      "name": "Transfer",
      "type": "event"
    },
    {
      "inputs": [
        {
          "internalType": "address",
          "name": "to",
          "type": "address"
        },
        {
          "internalType": "uint256",
          "name": "tokenId",
          "type": "uint256"
        }
      ],
      "name": "approve",
      "outputs": [],
      "stateMutability": "nonpayable",
      "type": "function"
    },
    {
      "inputs": [
        {
          "internalType": "address",
          "name": "owner",
          "type": "address"
        }
      ],
      "name": "balanceOf",
      "outputs": [
        {
          "internalType": "uint256",
          "name": "",
          "type": "uint256"
        }
      ],
      "stateMutability": "view",
      "type": "function"
    },
    {
      "inputs": [
        {
          "internalType": "uint256",
          "name": "tokenId",
          "type": "uint256"
        }
      ],
      "name": "getApproved",
      "outputs": [
        {
          "internalType": "address",
          "name": "",
          "type": "address"
        }
      ],
      "stateMutability": "view",
      "type": "function"
    },
    {
      "inputs": [
        {
          "internalType": "address",
          "name": "owner",
          "type": "address"
        },
        {
          "internalType": "address",
          "name": "operator",
          "type": "address"
        }
      ],
      "name": "isApprovedForAll",
      "outputs": [
        {
          "internalType": "bool",
          "name": "",
          "type": "bool"
        }
      ],
      "stateMutability": "view",
      "type": "function"
    },
    {
      "inputs": [],
      "name": "name",
      "outputs": [
        {
          "internalType": "string",
          "name": "",
          "type": "string"
        }
      ],
      "stateMutability": "view",
      "type": "function"
    },
    {
      "inputs": [],
      "name": "owner",
      "outputs": [
        {
          "internalType": "address",
          "name": "",
          "type": "address"
        }
      ],
      "stateMutability": "view",
      "type": "function"
    },
    {
      "inputs": [
        {
          "internalType": "uint256",
          "name": "tokenId",
          "type": "uint256"
        }
      ],
      "name": "ownerOf",
      "outputs": [
        {
          "internalType": "address",
          "name": "",
          "type": "address"
        }
      ],
      "stateMutability": "view",
      "type": "function"
    },
    {
      "inputs": [],
      "name": "renounceOwnership",
      "outputs": [],
      "stateMutability": "nonpayable",
      "type": "function"
    },
    {
      "inputs": [
        {
          "internalType": "address",
          "name": "from",
          "type": "address"
        },
        {
          "internalType": "address",
          "name": "to",
          "type": "address"
        },
        {
          "internalType": "uint256",
          "name": "tokenId",
          "type": "uint256"
        }
      ],
      "name": "safeTransferFrom",
      "outputs": [],
      "stateMutability": "nonpayable",
      "type": "function"
    },
    {
      "inputs": [
        {
          "internalType": "address",
          "name": "from",
          "type": "address"
        },
        {
          "internalType": "address",
          "name": "to",
          "type": "address"
        },
        {
          "internalType": "uint256",
          "name": "tokenId",
          "type": "uint256"
        },
        {
          "internalType": "bytes",
          "name": "data",
          "type": "bytes"
        }
      ],
      "name": "safeTransferFrom",
      "outputs": [],
      "stateMutability": "nonpayable",
      "type": "function"
    },
    {
      "inputs": [
        {
          "internalType": "address",
          "name": "operator",
          "type": "address"
        },
        {
          "internalType": "bool",
          "name": "approved",
          "type": "bool"
        }
      ],
      "name": "setApprovalForAll",
      "outputs": [],
      "stateMutability": "nonpayable",
      "type": "function"
    },
    {
      "inputs": [
        {
          "internalType": "bytes4",
          "name": "interfaceId",
          "type": "bytes4"
        }
      ],
      "name": "supportsInterface",
      "outputs": [
        {
          "internalType": "bool",
          "name": "",
          "type": "bool"
        }
      ],
      "stateMutability": "view",
      "type": "function"
    },
    {
      "inputs": [],
      "name": "symbol",
      "outputs": [
        {
          "internalType": "string",
          "name": "",
          "type": "string"
        }
      ],
      "stateMutability": "view",
      "type": "function"
    },
    {
      "inputs": [
        {
          "internalType": "uint256",
          "name": "index",
          "type": "uint256"
        }
      ],
      "name": "tokenByIndex",
      "outputs": [
        {
          "internalType": "uint256",
          "name": "",
          "type": "uint256"
        }
      ],
      "stateMutability": "view",
      "type": "function"
    },
    {
      "inputs": [
        {
          "internalType": "address",
          "name": "owner",
          "type": "address"
        },
        {
          "internalType": "uint256",
          "name": "index",
          "type": "uint256"
        }
      ],
      "name": "tokenOfOwnerByIndex",
      "outputs": [
        {
          "internalType": "uint256",
          "name": "",
          "type": "uint256"
        }
      ],
      "stateMutability": "view",
      "type": "function"
    },
    {
      "inputs": [
        {
          "internalType": "uint256",
          "name": "tokenId",
          "type": "uint256"
        }
      ],
      "name": "tokenURI",
      "outputs": [
        {
          "internalType": "string",
          "name": "",
          "type": "string"
        }
      ],
      "stateMutability": "view",
      "type": "function"
    },
    {
      "inputs": [],
      "name": "totalSupply",
      "outputs": [
        {
          "internalType": "uint256",
          "name": "",
          "type": "uint256"
        }
      ],
      "stateMutability": "view",
      "type": "function"
    },
    {
      "inputs": [
        {
          "internalType": "address",
          "name": "from",
          "type": "address"
        },
        {
          "internalType": "address",
          "name": "to",
          "type": "address"
        },
        {
          "internalType": "uint256",
          "name": "tokenId",
          "type": "uint256"
        }
      ],
      "name": "transferFrom",
      "outputs": [],
      "stateMutability": "nonpayable",
      "type": "function"
    },
    {
      "inputs": [
        {
          "internalType": "address",
          "name": "newOwner",
          "type": "address"
        }
      ],
      "name": "transferOwnership",
      "outputs": [],
      "stateMutability": "nonpayable",
      "type": "function"
    },
    {
      "inputs": [
        {
          "internalType": "string",
          "name": "domain",
          "type": "string"
        },
        {
          "internalType": "bool",
          "name": "flat",
          "type": "bool"
        },
        {
          "internalType": "uint16",
          "name": "amount",
          "type": "uint16"
        },
        {
          "internalType": "uint16",
          "name": "minCartTotal",
          "type": "uint16"
        },
        {
          "internalType": "uint16",
          "name": "maxDiscountedAmount",
          "type": "uint16"
        },
        {
          "internalType": "uint8",
          "name": "canUse",
          "type": "uint8"
        }
      ],
      "name": "mint",
      "outputs": [],
      "stateMutability": "nonpayable",
      "type": "function"
    },
    {
      "inputs": [
        {
          "internalType": "string",
          "name": "domain",
          "type": "string"
        },
        {
          "internalType": "bool",
          "name": "flat",
          "type": "bool"
        },
        {
          "internalType": "uint16",
          "name": "amount",
          "type": "uint16"
        },
        {
          "internalType": "uint16",
          "name": "minCartTotal",
          "type": "uint16"
        },
        {
          "internalType": "uint16",
          "name": "maxDiscountedAmount",
          "type": "uint16"
        },
        {
          "internalType": "uint8",
          "name": "canUse",
          "type": "uint8"
        },
        {
          "internalType": "uint256",
          "name": "count",
          "type": "uint256"
        }
      ],
      "name": "bulkMint",
      "outputs": [],
      "stateMutability": "nonpayable",
      "type": "function"
    },
    {
      "inputs": [
        {
          "internalType": "address",
          "name": "sender",
          "type": "address"
        }
      ],
      "name": "isOwner",
      "outputs": [
        {
          "internalType": "bool",
          "name": "",
          "type": "bool"
        }
      ],
      "stateMutability": "view",
      "type": "function"
    },
    {
      "inputs": [
        {
          "internalType": "uint256",
          "name": "tokenId",
          "type": "uint256"
        }
      ],
      "name": "get",
      "outputs": [
        {
          "internalType": "string",
          "name": "title",
          "type": "string"
        },
        {
          "internalType": "string",
          "name": "domain",
          "type": "string"
        },
        {
          "internalType": "bool",
          "name": "flat",
          "type": "bool"
        },
        {
          "internalType": "uint16",
          "name": "amount",
          "type": "uint16"
        },
        {
          "internalType": "uint16",
          "name": "minCartTotal",
          "type": "uint16"
        },
        {
          "internalType": "uint16",
          "name": "maxDiscountedAmount",
          "type": "uint16"
        },
        {
          "internalType": "uint8",
          "name": "canUse",
          "type": "uint8"
        },
        {
          "internalType": "bool",
          "name": "sold",
          "type": "bool"
        },
        {
          "internalType": "uint8",
          "name": "applied",
          "type": "uint8"
        }
      ],
      "stateMutability": "view",
      "type": "function"
    },
    {
      "inputs": [
        {
          "internalType": "uint256",
          "name": "tokenId",
          "type": "uint256"
        }
      ],
      "name": "buy",
      "outputs": [],
      "stateMutability": "payable",
      "type": "function"
    },
    {
      "inputs": [
        {
          "internalType": "uint256",
          "name": "tokenId",
          "type": "uint256"
        },
        {
          "internalType": "address",
          "name": "sender",
          "type": "address"
        }
      ],
      "name": "usedCoupon",
      "outputs": [],
      "stateMutability": "nonpayable",
      "type": "function"
    }
  ],
  "bytecode": "0x60806040523480156200001157600080fd5b506040518060400160405280600d81526020017f436f6465436c6f7564734e4654000000000000000000000000000000000000008152506040518060400160405280600581526020017f43434e4654000000000000000000000000000000000000000000000000000000815250816000908051906020019062000096929190620001a6565b508060019080519060200190620000af929190620001a6565b505050620000d2620000c6620000d860201b60201c565b620000e060201b60201c565b620002ba565b600033905090565b6000600a60009054906101000a900473ffffffffffffffffffffffffffffffffffffffff16905081600a60006101000a81548173ffffffffffffffffffffffffffffffffffffffff021916908373ffffffffffffffffffffffffffffffffffffffff1602179055508173ffffffffffffffffffffffffffffffffffffffff168173ffffffffffffffffffffffffffffffffffffffff167f8be0079c531659141344cd1fd0a4f28419497f9722a3daafe3b4186f6b6457e060405160405180910390a35050565b828054620001b49062000285565b90600052602060002090601f016020900481019282620001d8576000855562000224565b82601f10620001f357805160ff191683800117855562000224565b8280016001018555821562000224579182015b828111156200022357825182559160200191906001019062000206565b5b50905062000233919062000237565b5090565b5b808211156200025257600081600090555060010162000238565b5090565b7f4e487b7100000000000000000000000000000000000000000000000000000000600052602260045260246000fd5b600060028204905060018216806200029e57607f821691505b602082108103620002b457620002b362000256565b5b50919050565b61403080620002ca6000396000f3fe6080604052600436106101665760003560e01c80636e131bd0116100d1578063a22cb4651161008a578063d96a094a11610064578063d96a094a1461057a578063e52508cb14610596578063e985e9c5146105bf578063f2fde38b146105fc57610166565b8063a22cb465146104eb578063b88d4fde14610514578063c87b56dd1461053d57610166565b80636e131bd0146103d357806370a08231146103fc578063715018a6146104395780638da5cb5b146104505780639507d39a1461047b57806395d89b41146104c057610166565b806323b872dd1161012357806323b872dd1461028d5780632f54bf6e146102b65780632f745c59146102f357806342842e0e146103305780634f6ccce7146103595780636352211e1461039657610166565b806301ffc9a71461016b57806306fdde03146101a8578063081812fc146101d3578063095ea7b31461021057806318160ddd14610239578063231dce2814610264575b600080fd5b34801561017757600080fd5b50610192600480360381019061018d9190612968565b610625565b60405161019f91906129b0565b60405180910390f35b3480156101b457600080fd5b506101bd61069f565b6040516101ca9190612a64565b60405180910390f35b3480156101df57600080fd5b506101fa60048036038101906101f59190612abc565b610731565b6040516102079190612b2a565b60405180910390f35b34801561021c57600080fd5b5061023760048036038101906102329190612b71565b610777565b005b34801561024557600080fd5b5061024e61088e565b60405161025b9190612bc0565b60405180910390f35b34801561027057600080fd5b5061028b60048036038101906102869190612bdb565b61089b565b005b34801561029957600080fd5b506102b460048036038101906102af9190612c1b565b610960565b005b3480156102c257600080fd5b506102dd60048036038101906102d89190612c6e565b6109c0565b6040516102ea91906129b0565b60405180910390f35b3480156102ff57600080fd5b5061031a60048036038101906103159190612b71565b6109ff565b6040516103279190612bc0565b60405180910390f35b34801561033c57600080fd5b5061035760048036038101906103529190612c1b565b610aa4565b005b34801561036557600080fd5b50610380600480360381019061037b9190612abc565b610ac4565b60405161038d9190612bc0565b60405180910390f35b3480156103a257600080fd5b506103bd60048036038101906103b89190612abc565b610b35565b6040516103ca9190612b2a565b60405180910390f35b3480156103df57600080fd5b506103fa60048036038101906103f59190612e6f565b610be6565b005b34801561040857600080fd5b50610423600480360381019061041e9190612c6e565b610c24565b6040516104309190612bc0565b60405180910390f35b34801561044557600080fd5b5061044e610cdb565b005b34801561045c57600080fd5b50610465610cef565b6040516104729190612b2a565b60405180910390f35b34801561048757600080fd5b506104a2600480360381019061049d9190612abc565b610d19565b6040516104b799989796959493929190612f4b565b60405180910390f35b3480156104cc57600080fd5b506104d5610fd4565b6040516104e29190612a64565b60405180910390f35b3480156104f757600080fd5b50610512600480360381019061050d9190612fe6565b611066565b005b34801561052057600080fd5b5061053b600480360381019061053691906130c7565b61107c565b005b34801561054957600080fd5b50610564600480360381019061055f9190612abc565b6110de565b6040516105719190612a64565b60405180910390f35b610594600480360381019061058f9190612abc565b611146565b005b3480156105a257600080fd5b506105bd60048036038101906105b8919061314a565b6112c9565b005b3480156105cb57600080fd5b506105e660048036038101906105e191906131f3565b61149b565b6040516105f391906129b0565b60405180910390f35b34801561060857600080fd5b50610623600480360381019061061e9190612c6e565b61152f565b005b60007f780e9d63000000000000000000000000000000000000000000000000000000007bffffffffffffffffffffffffffffffffffffffffffffffffffffffff1916827bffffffffffffffffffffffffffffffffffffffffffffffffffffffff191614806106985750610697826115b2565b5b9050919050565b6060600080546106ae90613262565b80601f01602080910402602001604051908101604052809291908181526020018280546106da90613262565b80156107275780601f106106fc57610100808354040283529160200191610727565b820191906000526020600020905b81548152906001019060200180831161070a57829003601f168201915b5050505050905090565b600061073c82611694565b6004600083815260200190815260200160002060009054906101000a900473ffffffffffffffffffffffffffffffffffffffff169050919050565b600061078282610b35565b90508073ffffffffffffffffffffffffffffffffffffffff168373ffffffffffffffffffffffffffffffffffffffff16036107f2576040517f08c379a00000000000000000000000000000000000000000000000000000000081526004016107e990613305565b60405180910390fd5b8073ffffffffffffffffffffffffffffffffffffffff166108116116df565b73ffffffffffffffffffffffffffffffffffffffff161480610840575061083f8161083a6116df565b61149b565b5b61087f576040517f08c379a000000000000000000000000000000000000000000000000000000000815260040161087690613397565b60405180910390fd5b61088983836116e7565b505050565b6000600880549050905090565b8073ffffffffffffffffffffffffffffffffffffffff166108bb83610b35565b73ffffffffffffffffffffffffffffffffffffffff1614610911576040517f08c379a000000000000000000000000000000000000000000000000000000000815260040161090890613403565b60405180910390fd5b6001600b600084815260200190815260200160002060020160098282829054906101000a900460ff166109449190613452565b92506101000a81548160ff021916908360ff1602179055505050565b61097161096b6116df565b826117a0565b6109b0576040517f08c379a00000000000000000000000000000000000000000000000000000000081526004016109a7906134fb565b60405180910390fd5b6109bb838383611835565b505050565b60008173ffffffffffffffffffffffffffffffffffffffff166109e1610cef565b73ffffffffffffffffffffffffffffffffffffffff16149050919050565b6000610a0a83610c24565b8210610a4b576040517f08c379a0000000000000000000000000000000000000000000000000000000008152600401610a429061358d565b60405180910390fd5b600660008473ffffffffffffffffffffffffffffffffffffffff1673ffffffffffffffffffffffffffffffffffffffff168152602001908152602001600020600083815260200190815260200160002054905092915050565b610abf8383836040518060200160405280600081525061107c565b505050565b6000610ace61088e565b8210610b0f576040517f08c379a0000000000000000000000000000000000000000000000000000000008152600401610b069061361f565b60405180910390fd5b60088281548110610b2357610b2261363f565b5b90600052602060002001549050919050565b6000806002600084815260200190815260200160002060009054906101000a900473ffffffffffffffffffffffffffffffffffffffff169050600073ffffffffffffffffffffffffffffffffffffffff168173ffffffffffffffffffffffffffffffffffffffff1603610bdd576040517f08c379a0000000000000000000000000000000000000000000000000000000008152600401610bd4906136ba565b60405180910390fd5b80915050919050565b610bee611a9b565b60005b81811015610c1a57610c078888888888886112c9565b8080610c12906136da565b915050610bf1565b5050505050505050565b60008073ffffffffffffffffffffffffffffffffffffffff168273ffffffffffffffffffffffffffffffffffffffff1603610c94576040517f08c379a0000000000000000000000000000000000000000000000000000000008152600401610c8b90613794565b60405180910390fd5b600360008373ffffffffffffffffffffffffffffffffffffffff1673ffffffffffffffffffffffffffffffffffffffff168152602001908152602001600020549050919050565b610ce3611a9b565b610ced6000611b19565b565b6000600a60009054906101000a900473ffffffffffffffffffffffffffffffffffffffff16905090565b6060806000806000806000806000610d308a611bdf565b610d6f576040517f08c379a0000000000000000000000000000000000000000000000000000000008152600401610d6690613800565b60405180910390fd5b6000600b60008c815260200190815260200160002060405180610120016040529081600082018054610da090613262565b80601f0160208091040260200160405190810160405280929190818152602001828054610dcc90613262565b8015610e195780601f10610dee57610100808354040283529160200191610e19565b820191906000526020600020905b815481529060010190602001808311610dfc57829003601f168201915b50505050508152602001600182018054610e3290613262565b80601f0160208091040260200160405190810160405280929190818152602001828054610e5e90613262565b8015610eab5780601f10610e8057610100808354040283529160200191610eab565b820191906000526020600020905b815481529060010190602001808311610e8e57829003601f168201915b505050505081526020016002820160009054906101000a900460ff161515151581526020016002820160019054906101000a900461ffff1661ffff1661ffff1681526020016002820160039054906101000a900461ffff1661ffff1661ffff1681526020016002820160059054906101000a900461ffff1661ffff1661ffff1681526020016002820160079054906101000a900460ff1660ff1660ff1681526020016002820160089054906101000a900460ff161515151581526020016002820160099054906101000a900460ff1660ff1660ff1681525050905080600001519950806020015198508060400151975080606001519650806080015195508060a0015194508060c0015193508060e0015192508061010001519150509193959799909294969850565b606060018054610fe390613262565b80601f016020809104026020016040519081016040528092919081815260200182805461100f90613262565b801561105c5780601f106110315761010080835404028352916020019161105c565b820191906000526020600020905b81548152906001019060200180831161103f57829003601f168201915b5050505050905090565b6110786110716116df565b8383611c4b565b5050565b61108d6110876116df565b836117a0565b6110cc576040517f08c379a00000000000000000000000000000000000000000000000000000000081526004016110c3906134fb565b60405180910390fd5b6110d884848484611db7565b50505050565b60606110e982611694565b60006110f3611e13565b90506000815111611113576040518060200160405280600081525061113e565b8061111d84611e2a565b60405160200161112e92919061385c565b6040516020818303038152906040525b915050919050565b61114e610cef565b73ffffffffffffffffffffffffffffffffffffffff1661116d82610b35565b73ffffffffffffffffffffffffffffffffffffffff161461118c610fd4565b60405160200161119c91906138cc565b604051602081830303815290604052906111ec576040517f08c379a00000000000000000000000000000000000000000000000000000000081526004016111e39190612a64565b60405180910390fd5b5066470de4df8200003414611236576040517f08c379a000000000000000000000000000000000000000000000000000000000815260040161122d9061393a565b60405180910390fd5b611248611241610cef565b3383611835565b611250610cef565b73ffffffffffffffffffffffffffffffffffffffff166108fc60149081150290604051600060405180830381858888f19350505050158015611296573d6000803e3d6000fd5b506001600b600083815260200190815260200160002060020160086101000a81548160ff02191690831515021790555050565b6112d1611a9b565b60006112db611f8a565b905060006112f1886112ec84611e2a565b611fa5565b905060405180610120016040528082815260200189815260200188151581526020018761ffff1681526020018661ffff1681526020018561ffff1681526020018460ff168152602001600015158152602001600060ff16815250600b6000848152602001908152602001600020600082015181600001908051906020019061137a929190612859565b506020820151816001019080519060200190611397929190612859565b5060408201518160020160006101000a81548160ff02191690831515021790555060608201518160020160016101000a81548161ffff021916908361ffff16021790555060808201518160020160036101000a81548161ffff021916908361ffff16021790555060a08201518160020160056101000a81548161ffff021916908361ffff16021790555060c08201518160020160076101000a81548160ff021916908360ff16021790555060e08201518160020160086101000a81548160ff0219169083151502179055506101008201518160020160096101000a81548160ff021916908360ff1602179055509050506114913383611fd1565b5050505050505050565b6000600560008473ffffffffffffffffffffffffffffffffffffffff1673ffffffffffffffffffffffffffffffffffffffff16815260200190815260200160002060008373ffffffffffffffffffffffffffffffffffffffff1673ffffffffffffffffffffffffffffffffffffffff16815260200190815260200160002060009054906101000a900460ff16905092915050565b611537611a9b565b600073ffffffffffffffffffffffffffffffffffffffff168173ffffffffffffffffffffffffffffffffffffffff16036115a6576040517f08c379a000000000000000000000000000000000000000000000000000000000815260040161159d906139cc565b60405180910390fd5b6115af81611b19565b50565b60007f80ac58cd000000000000000000000000000000000000000000000000000000007bffffffffffffffffffffffffffffffffffffffffffffffffffffffff1916827bffffffffffffffffffffffffffffffffffffffffffffffffffffffff1916148061167d57507f5b5e139f000000000000000000000000000000000000000000000000000000007bffffffffffffffffffffffffffffffffffffffffffffffffffffffff1916827bffffffffffffffffffffffffffffffffffffffffffffffffffffffff1916145b8061168d575061168c82611fef565b5b9050919050565b61169d81611bdf565b6116dc576040517f08c379a00000000000000000000000000000000000000000000000000000000081526004016116d3906136ba565b60405180910390fd5b50565b600033905090565b816004600083815260200190815260200160002060006101000a81548173ffffffffffffffffffffffffffffffffffffffff021916908373ffffffffffffffffffffffffffffffffffffffff160217905550808273ffffffffffffffffffffffffffffffffffffffff1661175a83610b35565b73ffffffffffffffffffffffffffffffffffffffff167f8c5be1e5ebec7d5bd14f71427d1e84f3dd0314c0f7b2291e5b200ac8c7c3b92560405160405180910390a45050565b6000806117ac83610b35565b90508073ffffffffffffffffffffffffffffffffffffffff168473ffffffffffffffffffffffffffffffffffffffff1614806117ee57506117ed818561149b565b5b8061182c57508373ffffffffffffffffffffffffffffffffffffffff1661181484610731565b73ffffffffffffffffffffffffffffffffffffffff16145b91505092915050565b8273ffffffffffffffffffffffffffffffffffffffff1661185582610b35565b73ffffffffffffffffffffffffffffffffffffffff16146118ab576040517f08c379a00000000000000000000000000000000000000000000000000000000081526004016118a290613a5e565b60405180910390fd5b600073ffffffffffffffffffffffffffffffffffffffff168273ffffffffffffffffffffffffffffffffffffffff160361191a576040517f08c379a000000000000000000000000000000000000000000000000000000000815260040161191190613af0565b60405180910390fd5b611925838383612059565b6119306000826116e7565b6001600360008573ffffffffffffffffffffffffffffffffffffffff1673ffffffffffffffffffffffffffffffffffffffff16815260200190815260200160002060008282546119809190613b10565b925050819055506001600360008473ffffffffffffffffffffffffffffffffffffffff1673ffffffffffffffffffffffffffffffffffffffff16815260200190815260200160002060008282546119d79190613b44565b92505081905550816002600083815260200190815260200160002060006101000a81548173ffffffffffffffffffffffffffffffffffffffff021916908373ffffffffffffffffffffffffffffffffffffffff160217905550808273ffffffffffffffffffffffffffffffffffffffff168473ffffffffffffffffffffffffffffffffffffffff167fddf252ad1be2c89b69c2b068fc378daa952ba7f163c4a11628f55a4df523b3ef60405160405180910390a4611a9683838361216b565b505050565b611aa36116df565b73ffffffffffffffffffffffffffffffffffffffff16611ac1610cef565b73ffffffffffffffffffffffffffffffffffffffff1614611b17576040517f08c379a0000000000000000000000000000000000000000000000000000000008152600401611b0e90613be6565b60405180910390fd5b565b6000600a60009054906101000a900473ffffffffffffffffffffffffffffffffffffffff16905081600a60006101000a81548173ffffffffffffffffffffffffffffffffffffffff021916908373ffffffffffffffffffffffffffffffffffffffff1602179055508173ffffffffffffffffffffffffffffffffffffffff168173ffffffffffffffffffffffffffffffffffffffff167f8be0079c531659141344cd1fd0a4f28419497f9722a3daafe3b4186f6b6457e060405160405180910390a35050565b60008073ffffffffffffffffffffffffffffffffffffffff166002600084815260200190815260200160002060009054906101000a900473ffffffffffffffffffffffffffffffffffffffff1673ffffffffffffffffffffffffffffffffffffffff1614159050919050565b8173ffffffffffffffffffffffffffffffffffffffff168373ffffffffffffffffffffffffffffffffffffffff1603611cb9576040517f08c379a0000000000000000000000000000000000000000000000000000000008152600401611cb090613c52565b60405180910390fd5b80600560008573ffffffffffffffffffffffffffffffffffffffff1673ffffffffffffffffffffffffffffffffffffffff16815260200190815260200160002060008473ffffffffffffffffffffffffffffffffffffffff1673ffffffffffffffffffffffffffffffffffffffff16815260200190815260200160002060006101000a81548160ff0219169083151502179055508173ffffffffffffffffffffffffffffffffffffffff168373ffffffffffffffffffffffffffffffffffffffff167f17307eab39ab6107e8899845ad3d59bd9653f200f220920489ca2b5937696c3183604051611daa91906129b0565b60405180910390a3505050565b611dc2848484611835565b611dce84848484612170565b611e0d576040517f08c379a0000000000000000000000000000000000000000000000000000000008152600401611e0490613ce4565b60405180910390fd5b50505050565b606060405180602001604052806000815250905090565b606060008203611e71576040518060400160405280600181526020017f30000000000000000000000000000000000000000000000000000000000000008152509050611f85565b600082905060005b60008214611ea3578080611e8c906136da565b915050600a82611e9c9190613d33565b9150611e79565b60008167ffffffffffffffff811115611ebf57611ebe612ca5565b5b6040519080825280601f01601f191660200182016040528015611ef15781602001600182028036833780820191505090505b5090505b60008514611f7e57600182611f0a9190613b10565b9150600a85611f199190613d64565b6030611f259190613b44565b60f81b818381518110611f3b57611f3a61363f565b5b60200101907effffffffffffffffffffffffffffffffffffffffffffffffffffffffffffff1916908160001a905350600a85611f779190613d33565b9450611ef5565b8093505050505b919050565b60006001611f9661088e565b611fa09190613b44565b905090565b60608282604051602001611fba929190613de1565b604051602081830303815290604052905092915050565b611feb8282604051806020016040528060008152506122f7565b5050565b60007f01ffc9a7000000000000000000000000000000000000000000000000000000007bffffffffffffffffffffffffffffffffffffffffffffffffffffffff1916827bffffffffffffffffffffffffffffffffffffffffffffffffffffffff1916149050919050565b612064838383612352565b600073ffffffffffffffffffffffffffffffffffffffff168373ffffffffffffffffffffffffffffffffffffffff16036120a6576120a181612357565b6120e5565b8173ffffffffffffffffffffffffffffffffffffffff168373ffffffffffffffffffffffffffffffffffffffff16146120e4576120e383826123a0565b5b5b600073ffffffffffffffffffffffffffffffffffffffff168273ffffffffffffffffffffffffffffffffffffffff1603612127576121228161250d565b612166565b8273ffffffffffffffffffffffffffffffffffffffff168273ffffffffffffffffffffffffffffffffffffffff16146121655761216482826125de565b5b5b505050565b505050565b60006121918473ffffffffffffffffffffffffffffffffffffffff1661265d565b156122ea578373ffffffffffffffffffffffffffffffffffffffff1663150b7a026121ba6116df565b8786866040518563ffffffff1660e01b81526004016121dc9493929190613e65565b6020604051808303816000875af192505050801561221857506040513d601f19601f820116820180604052508101906122159190613ec6565b60015b61229a573d8060008114612248576040519150601f19603f3d011682016040523d82523d6000602084013e61224d565b606091505b506000815103612292576040517f08c379a000000000000000000000000000000000000000000000000000000000815260040161228990613ce4565b60405180910390fd5b805181602001fd5b63150b7a0260e01b7bffffffffffffffffffffffffffffffffffffffffffffffffffffffff1916817bffffffffffffffffffffffffffffffffffffffffffffffffffffffff1916149150506122ef565b600190505b949350505050565b6123018383612680565b61230e6000848484612170565b61234d576040517f08c379a000000000000000000000000000000000000000000000000000000000815260040161234490613ce4565b60405180910390fd5b505050565b505050565b6008805490506009600083815260200190815260200160002081905550600881908060018154018082558091505060019003906000526020600020016000909190919091505550565b600060016123ad84610c24565b6123b79190613b10565b905060006007600084815260200190815260200160002054905081811461249c576000600660008673ffffffffffffffffffffffffffffffffffffffff1673ffffffffffffffffffffffffffffffffffffffff168152602001908152602001600020600084815260200190815260200160002054905080600660008773ffffffffffffffffffffffffffffffffffffffff1673ffffffffffffffffffffffffffffffffffffffff168152602001908152602001600020600084815260200190815260200160002081905550816007600083815260200190815260200160002081905550505b6007600084815260200190815260200160002060009055600660008573ffffffffffffffffffffffffffffffffffffffff1673ffffffffffffffffffffffffffffffffffffffff16815260200190815260200160002060008381526020019081526020016000206000905550505050565b600060016008805490506125219190613b10565b90506000600960008481526020019081526020016000205490506000600883815481106125515761255061363f565b5b9060005260206000200154905080600883815481106125735761257261363f565b5b9060005260206000200181905550816009600083815260200190815260200160002081905550600960008581526020019081526020016000206000905560088054806125c2576125c1613ef3565b5b6001900381819060005260206000200160009055905550505050565b60006125e983610c24565b905081600660008573ffffffffffffffffffffffffffffffffffffffff1673ffffffffffffffffffffffffffffffffffffffff168152602001908152602001600020600083815260200190815260200160002081905550806007600084815260200190815260200160002081905550505050565b6000808273ffffffffffffffffffffffffffffffffffffffff163b119050919050565b600073ffffffffffffffffffffffffffffffffffffffff168273ffffffffffffffffffffffffffffffffffffffff16036126ef576040517f08c379a00000000000000000000000000000000000000000000000000000000081526004016126e690613f6e565b60405180910390fd5b6126f881611bdf565b15612738576040517f08c379a000000000000000000000000000000000000000000000000000000000815260040161272f90613fda565b60405180910390fd5b61274460008383612059565b6001600360008473ffffffffffffffffffffffffffffffffffffffff1673ffffffffffffffffffffffffffffffffffffffff16815260200190815260200160002060008282546127949190613b44565b92505081905550816002600083815260200190815260200160002060006101000a81548173ffffffffffffffffffffffffffffffffffffffff021916908373ffffffffffffffffffffffffffffffffffffffff160217905550808273ffffffffffffffffffffffffffffffffffffffff16600073ffffffffffffffffffffffffffffffffffffffff167fddf252ad1be2c89b69c2b068fc378daa952ba7f163c4a11628f55a4df523b3ef60405160405180910390a46128556000838361216b565b5050565b82805461286590613262565b90600052602060002090601f01602090048101928261288757600085556128ce565b82601f106128a057805160ff19168380011785556128ce565b828001600101855582156128ce579182015b828111156128cd5782518255916020019190600101906128b2565b5b5090506128db91906128df565b5090565b5b808211156128f85760008160009055506001016128e0565b5090565b6000604051905090565b600080fd5b600080fd5b60007fffffffff0000000000000000000000000000000000000000000000000000000082169050919050565b61294581612910565b811461295057600080fd5b50565b6000813590506129628161293c565b92915050565b60006020828403121561297e5761297d612906565b5b600061298c84828501612953565b91505092915050565b60008115159050919050565b6129aa81612995565b82525050565b60006020820190506129c560008301846129a1565b92915050565b600081519050919050565b600082825260208201905092915050565b60005b83811015612a055780820151818401526020810190506129ea565b83811115612a14576000848401525b50505050565b6000601f19601f8301169050919050565b6000612a36826129cb565b612a4081856129d6565b9350612a508185602086016129e7565b612a5981612a1a565b840191505092915050565b60006020820190508181036000830152612a7e8184612a2b565b905092915050565b6000819050919050565b612a9981612a86565b8114612aa457600080fd5b50565b600081359050612ab681612a90565b92915050565b600060208284031215612ad257612ad1612906565b5b6000612ae084828501612aa7565b91505092915050565b600073ffffffffffffffffffffffffffffffffffffffff82169050919050565b6000612b1482612ae9565b9050919050565b612b2481612b09565b82525050565b6000602082019050612b3f6000830184612b1b565b92915050565b612b4e81612b09565b8114612b5957600080fd5b50565b600081359050612b6b81612b45565b92915050565b60008060408385031215612b8857612b87612906565b5b6000612b9685828601612b5c565b9250506020612ba785828601612aa7565b9150509250929050565b612bba81612a86565b82525050565b6000602082019050612bd56000830184612bb1565b92915050565b60008060408385031215612bf257612bf1612906565b5b6000612c0085828601612aa7565b9250506020612c1185828601612b5c565b9150509250929050565b600080600060608486031215612c3457612c33612906565b5b6000612c4286828701612b5c565b9350506020612c5386828701612b5c565b9250506040612c6486828701612aa7565b9150509250925092565b600060208284031215612c8457612c83612906565b5b6000612c9284828501612b5c565b91505092915050565b600080fd5b600080fd5b7f4e487b7100000000000000000000000000000000000000000000000000000000600052604160045260246000fd5b612cdd82612a1a565b810181811067ffffffffffffffff82111715612cfc57612cfb612ca5565b5b80604052505050565b6000612d0f6128fc565b9050612d1b8282612cd4565b919050565b600067ffffffffffffffff821115612d3b57612d3a612ca5565b5b612d4482612a1a565b9050602081019050919050565b82818337600083830152505050565b6000612d73612d6e84612d20565b612d05565b905082815260208101848484011115612d8f57612d8e612ca0565b5b612d9a848285612d51565b509392505050565b600082601f830112612db757612db6612c9b565b5b8135612dc7848260208601612d60565b91505092915050565b612dd981612995565b8114612de457600080fd5b50565b600081359050612df681612dd0565b92915050565b600061ffff82169050919050565b612e1381612dfc565b8114612e1e57600080fd5b50565b600081359050612e3081612e0a565b92915050565b600060ff82169050919050565b612e4c81612e36565b8114612e5757600080fd5b50565b600081359050612e6981612e43565b92915050565b600080600080600080600060e0888a031215612e8e57612e8d612906565b5b600088013567ffffffffffffffff811115612eac57612eab61290b565b5b612eb88a828b01612da2565b9750506020612ec98a828b01612de7565b9650506040612eda8a828b01612e21565b9550506060612eeb8a828b01612e21565b9450506080612efc8a828b01612e21565b93505060a0612f0d8a828b01612e5a565b92505060c0612f1e8a828b01612aa7565b91505092959891949750929550565b612f3681612dfc565b82525050565b612f4581612e36565b82525050565b6000610120820190508181036000830152612f66818c612a2b565b90508181036020830152612f7a818b612a2b565b9050612f89604083018a6129a1565b612f966060830189612f2d565b612fa36080830188612f2d565b612fb060a0830187612f2d565b612fbd60c0830186612f3c565b612fca60e08301856129a1565b612fd8610100830184612f3c565b9a9950505050505050505050565b60008060408385031215612ffd57612ffc612906565b5b600061300b85828601612b5c565b925050602061301c85828601612de7565b9150509250929050565b600067ffffffffffffffff82111561304157613040612ca5565b5b61304a82612a1a565b9050602081019050919050565b600061306a61306584613026565b612d05565b90508281526020810184848401111561308657613085612ca0565b5b613091848285612d51565b509392505050565b600082601f8301126130ae576130ad612c9b565b5b81356130be848260208601613057565b91505092915050565b600080600080608085870312156130e1576130e0612906565b5b60006130ef87828801612b5c565b945050602061310087828801612b5c565b935050604061311187828801612aa7565b925050606085013567ffffffffffffffff8111156131325761313161290b565b5b61313e87828801613099565b91505092959194509250565b60008060008060008060c0878903121561316757613166612906565b5b600087013567ffffffffffffffff8111156131855761318461290b565b5b61319189828a01612da2565b96505060206131a289828a01612de7565b95505060406131b389828a01612e21565b94505060606131c489828a01612e21565b93505060806131d589828a01612e21565b92505060a06131e689828a01612e5a565b9150509295509295509295565b6000806040838503121561320a57613209612906565b5b600061321885828601612b5c565b925050602061322985828601612b5c565b9150509250929050565b7f4e487b7100000000000000000000000000000000000000000000000000000000600052602260045260246000fd5b6000600282049050600182168061327a57607f821691505b60208210810361328d5761328c613233565b5b50919050565b7f4552433732313a20617070726f76616c20746f2063757272656e74206f776e6560008201527f7200000000000000000000000000000000000000000000000000000000000000602082015250565b60006132ef6021836129d6565b91506132fa82613293565b604082019050919050565b6000602082019050818103600083015261331e816132e2565b9050919050565b7f4552433732313a20617070726f76652063616c6c6572206973206e6f7420746f60008201527f6b656e206f776e6572206e6f7220617070726f76656420666f7220616c6c0000602082015250565b6000613381603e836129d6565b915061338c82613325565b604082019050919050565b600060208201905081810360008301526133b081613374565b9050919050565b7f4f776e6572204d69736d61746368000000000000000000000000000000000000600082015250565b60006133ed600e836129d6565b91506133f8826133b7565b602082019050919050565b6000602082019050818103600083015261341c816133e0565b9050919050565b7f4e487b7100000000000000000000000000000000000000000000000000000000600052601160045260246000fd5b600061345d82612e36565b915061346883612e36565b92508260ff0382111561347e5761347d613423565b5b828201905092915050565b7f4552433732313a2063616c6c6572206973206e6f7420746f6b656e206f776e6560008201527f72206e6f7220617070726f766564000000000000000000000000000000000000602082015250565b60006134e5602e836129d6565b91506134f082613489565b604082019050919050565b60006020820190508181036000830152613514816134d8565b9050919050565b7f455243373231456e756d657261626c653a206f776e657220696e646578206f7560008201527f74206f6620626f756e6473000000000000000000000000000000000000000000602082015250565b6000613577602b836129d6565b91506135828261351b565b604082019050919050565b600060208201905081810360008301526135a68161356a565b9050919050565b7f455243373231456e756d657261626c653a20676c6f62616c20696e646578206f60008201527f7574206f6620626f756e64730000000000000000000000000000000000000000602082015250565b6000613609602c836129d6565b9150613614826135ad565b604082019050919050565b60006020820190508181036000830152613638816135fc565b9050919050565b7f4e487b7100000000000000000000000000000000000000000000000000000000600052603260045260246000fd5b7f4552433732313a20696e76616c696420746f6b656e2049440000000000000000600082015250565b60006136a46018836129d6565b91506136af8261366e565b602082019050919050565b600060208201905081810360008301526136d381613697565b9050919050565b60006136e582612a86565b91507fffffffffffffffffffffffffffffffffffffffffffffffffffffffffffffffff820361371757613716613423565b5b600182019050919050565b7f4552433732313a2061646472657373207a65726f206973206e6f74206120766160008201527f6c6964206f776e65720000000000000000000000000000000000000000000000602082015250565b600061377e6029836129d6565b915061378982613722565b604082019050919050565b600060208201905081810360008301526137ad81613771565b9050919050565b7f746f6b656e206e6f74206d696e74656400000000000000000000000000000000600082015250565b60006137ea6010836129d6565b91506137f5826137b4565b602082019050919050565b60006020820190508181036000830152613819816137dd565b9050919050565b600081905092915050565b6000613836826129cb565b6138408185613820565b93506138508185602086016129e7565b80840191505092915050565b6000613868828561382b565b9150613874828461382b565b91508190509392505050565b7f206973206e6f74207472616e7366657261626c65000000000000000000000000600082015250565b60006138b6601483613820565b91506138c182613880565b601482019050919050565b60006138d8828461382b565b91506138e3826138a9565b915081905092915050565b7f496e76616c696420507269636500000000000000000000000000000000000000600082015250565b6000613924600d836129d6565b915061392f826138ee565b602082019050919050565b6000602082019050818103600083015261395381613917565b9050919050565b7f4f776e61626c653a206e6577206f776e657220697320746865207a65726f206160008201527f6464726573730000000000000000000000000000000000000000000000000000602082015250565b60006139b66026836129d6565b91506139c18261395a565b604082019050919050565b600060208201905081810360008301526139e5816139a9565b9050919050565b7f4552433732313a207472616e736665722066726f6d20696e636f72726563742060008201527f6f776e6572000000000000000000000000000000000000000000000000000000602082015250565b6000613a486025836129d6565b9150613a53826139ec565b604082019050919050565b60006020820190508181036000830152613a7781613a3b565b9050919050565b7f4552433732313a207472616e7366657220746f20746865207a65726f2061646460008201527f7265737300000000000000000000000000000000000000000000000000000000602082015250565b6000613ada6024836129d6565b9150613ae582613a7e565b604082019050919050565b60006020820190508181036000830152613b0981613acd565b9050919050565b6000613b1b82612a86565b9150613b2683612a86565b925082821015613b3957613b38613423565b5b828203905092915050565b6000613b4f82612a86565b9150613b5a83612a86565b9250827fffffffffffffffffffffffffffffffffffffffffffffffffffffffffffffffff03821115613b8f57613b8e613423565b5b828201905092915050565b7f4f776e61626c653a2063616c6c6572206973206e6f7420746865206f776e6572600082015250565b6000613bd06020836129d6565b9150613bdb82613b9a565b602082019050919050565b60006020820190508181036000830152613bff81613bc3565b9050919050565b7f4552433732313a20617070726f766520746f2063616c6c657200000000000000600082015250565b6000613c3c6019836129d6565b9150613c4782613c06565b602082019050919050565b60006020820190508181036000830152613c6b81613c2f565b9050919050565b7f4552433732313a207472616e7366657220746f206e6f6e20455243373231526560008201527f63656976657220696d706c656d656e7465720000000000000000000000000000602082015250565b6000613cce6032836129d6565b9150613cd982613c72565b604082019050919050565b60006020820190508181036000830152613cfd81613cc1565b9050919050565b7f4e487b7100000000000000000000000000000000000000000000000000000000600052601260045260246000fd5b6000613d3e82612a86565b9150613d4983612a86565b925082613d5957613d58613d04565b5b828204905092915050565b6000613d6f82612a86565b9150613d7a83612a86565b925082613d8a57613d89613d04565b5b828206905092915050565b7f2300000000000000000000000000000000000000000000000000000000000000600082015250565b6000613dcb600183613820565b9150613dd682613d95565b600182019050919050565b6000613ded828561382b565b9150613df882613dbe565b9150613e04828461382b565b91508190509392505050565b600081519050919050565b600082825260208201905092915050565b6000613e3782613e10565b613e418185613e1b565b9350613e518185602086016129e7565b613e5a81612a1a565b840191505092915050565b6000608082019050613e7a6000830187612b1b565b613e876020830186612b1b565b613e946040830185612bb1565b8181036060830152613ea68184613e2c565b905095945050505050565b600081519050613ec08161293c565b92915050565b600060208284031215613edc57613edb612906565b5b6000613eea84828501613eb1565b91505092915050565b7f4e487b7100000000000000000000000000000000000000000000000000000000600052603160045260246000fd5b7f4552433732313a206d696e7420746f20746865207a65726f2061646472657373600082015250565b6000613f586020836129d6565b9150613f6382613f22565b602082019050919050565b60006020820190508181036000830152613f8781613f4b565b9050919050565b7f4552433732313a20746f6b656e20616c7265616479206d696e74656400000000600082015250565b6000613fc4601c836129d6565b9150613fcf82613f8e565b602082019050919050565b60006020820190508181036000830152613ff381613fb7565b905091905056fea26469706673582212201e352c0c2cb318ff865bf7699badd16faf38d584aaa452dc8fd4d19476650ab264736f6c634300080e0033",
  "immutableReferences": {},
  "source": "// SPDX-License-Identifier: MIT\r\npragma solidity >=0.4.22 <0.9.0;\r\n\r\nimport \"@openzeppelin/contracts/utils/Strings.sol\";\r\nimport \"@openzeppelin/contracts/access/Ownable.sol\";\r\nimport \"@openzeppelin/contracts/token/ERC721/ERC721.sol\";\r\nimport \"@openzeppelin/contracts/token/ERC721/extensions/ERC721Enumerable.sol\";\r\n\r\ncontract CodeCloudsNFT is ERC721Enumerable,  Ownable {\r\n    struct Metadata {\r\n        string title;\r\n        string domain;\r\n        bool flat;\r\n        uint16 amount;\r\n        uint16 minCartTotal;\r\n        uint16 maxDiscountedAmount;\r\n        uint8 canUse;\r\n        bool sold;\r\n        uint8 applied;\r\n    }\r\n\r\n    mapping(uint256 => Metadata) idToCoupon;\r\n\r\n    constructor() ERC721(\"CodeCloudsNFT\", \"CCNFT\") {\r\n    }\r\n\r\n    function mint(\r\n        string memory domain,\r\n        bool flat,\r\n        uint16 amount,\r\n        uint16 minCartTotal,\r\n        uint16 maxDiscountedAmount,\r\n        uint8 canUse\r\n    ) public onlyOwner {\r\n        uint256 couponId = getCouponId();\r\n        string memory title = generateTitle(domain, Strings.toString(couponId));\r\n        idToCoupon[couponId] = Metadata(\r\n            title, \r\n            domain, \r\n            flat, \r\n            amount, \r\n            minCartTotal, \r\n            maxDiscountedAmount, \r\n            canUse,\r\n            false,\r\n            0\r\n        );\r\n        _safeMint(msg.sender, couponId);\r\n    }\r\n\r\n    function bulkMint(\r\n        string memory domain,\r\n        bool flat,\r\n        uint16 amount,\r\n        uint16 minCartTotal,\r\n        uint16 maxDiscountedAmount,\r\n        uint8 canUse,\r\n        uint256 count\r\n    ) public onlyOwner {\r\n        for (uint256 index = 0; index < count; index++) {\r\n            mint(domain, flat, amount, minCartTotal, maxDiscountedAmount, canUse);\r\n        }\r\n    }\r\n\r\n    function getCouponId() internal view returns (uint256) {\r\n        return totalSupply() + 1;\r\n    }\r\n\r\n    function generateTitle(string memory domain, string memory id) internal pure returns (string memory){\r\n        return string(abi.encodePacked(domain, '#', id));\r\n    }\r\n\r\n    function isOwner(address sender) public view returns (bool){\r\n        return owner() == sender;\r\n    }\r\n\r\n    function get(uint256 tokenId) external view returns (\r\n        string memory title,\r\n        string memory domain,\r\n        bool flat,\r\n        uint16 amount,\r\n        uint16 minCartTotal,\r\n        uint16 maxDiscountedAmount,\r\n        uint8 canUse,\r\n        bool sold,\r\n        uint8 applied\r\n    ) {\r\n        require(_exists(tokenId), \"token not minted\");\r\n        Metadata memory coupon = idToCoupon[tokenId];\r\n        title = coupon.title;\r\n        domain = coupon.domain;\r\n        flat = coupon.flat;\r\n        amount = coupon.amount;\r\n        minCartTotal = coupon.minCartTotal;\r\n        maxDiscountedAmount = coupon.maxDiscountedAmount;\r\n        canUse = coupon.canUse;\r\n        sold = coupon.sold;\r\n        applied = coupon.applied;\r\n    }\r\n\r\n    function buy(uint256 tokenId) external payable {\r\n        require(ownerOf(tokenId) == owner(), string(abi.encodePacked(symbol(), ' is not transferable')));\r\n        require(msg.value == 0.02 ether, \"Invalid Price\");\r\n        _transfer(owner(), msg.sender, tokenId);\r\n        payable(owner()).transfer(20 wei);\r\n        idToCoupon[tokenId].sold = true;\r\n    }\r\n\r\n    function usedCoupon(uint256 tokenId, address sender) external {\r\n        require(ownerOf(tokenId) == sender, 'Owner Mismatch');\r\n        idToCoupon[tokenId].applied += 1;\r\n    }\r\n\r\n}\r\n",
  "sourcePath": "D:\\xampp-8\\htdocs\\smart-contract\\nft-smartcontract\\truffle\\contracts\\CodeCloudsNFT.sol",
  "compiler": {
    "name": "solc",
    "version": "0.8.14+commit.80d49f37.Emscripten.clang"
  },
  "schemaVersion": "3.4.8",
  "updatedAt": "2022-08-11T19:22:24.418Z",
  "devdoc": {
    "kind": "dev",
    "methods": {
      "approve(address,uint256)": {
        "details": "See {IERC721-approve}."
      },
      "balanceOf(address)": {
        "details": "See {IERC721-balanceOf}."
      },
      "getApproved(uint256)": {
        "details": "See {IERC721-getApproved}."
      },
      "isApprovedForAll(address,address)": {
        "details": "See {IERC721-isApprovedForAll}."
      },
      "name()": {
        "details": "See {IERC721Metadata-name}."
      },
      "owner()": {
        "details": "Returns the address of the current owner."
      },
      "ownerOf(uint256)": {
        "details": "See {IERC721-ownerOf}."
      },
      "renounceOwnership()": {
        "details": "Leaves the contract without owner. It will not be possible to call `onlyOwner` functions anymore. Can only be called by the current owner. NOTE: Renouncing ownership will leave the contract without an owner, thereby removing any functionality that is only available to the owner."
      },
      "safeTransferFrom(address,address,uint256)": {
        "details": "See {IERC721-safeTransferFrom}."
      },
      "safeTransferFrom(address,address,uint256,bytes)": {
        "details": "See {IERC721-safeTransferFrom}."
      },
      "setApprovalForAll(address,bool)": {
        "details": "See {IERC721-setApprovalForAll}."
      },
      "supportsInterface(bytes4)": {
        "details": "See {IERC165-supportsInterface}."
      },
      "symbol()": {
        "details": "See {IERC721Metadata-symbol}."
      },
      "tokenByIndex(uint256)": {
        "details": "See {IERC721Enumerable-tokenByIndex}."
      },
      "tokenOfOwnerByIndex(address,uint256)": {
        "details": "See {IERC721Enumerable-tokenOfOwnerByIndex}."
      },
      "tokenURI(uint256)": {
        "details": "See {IERC721Metadata-tokenURI}."
      },
      "totalSupply()": {
        "details": "See {IERC721Enumerable-totalSupply}."
      },
      "transferFrom(address,address,uint256)": {
        "details": "See {IERC721-transferFrom}."
      },
      "transferOwnership(address)": {
        "details": "Transfers ownership of the contract to a new account (`newOwner`). Can only be called by the current owner."
      }
    },
    "version": 1
  },
  "userdoc": {
    "kind": "user",
    "methods": {},
    "version": 1
  }
}